:100000000C9462000C948A000C948A000C948A0070
:100010000C948A000C948A000C948A000C948A0038
:100020000C948A000C948A000C948A000C948A0028
:100030000C948A000C948A000C948A000C948A0018
:100040000C94A7010C948A000C9417020C94F101F3
:100050000C948A000C948A000C948A000C948A00F8
:100060000C948A000C948A000000000025002800EF
:100070002B0000000000240027002A0000000000E0
:1000800023002600290004040404040404040202DA
:100090000202020203030303030301020408102007
:1000A0004080010204081020010204081020000012
:1000B0000008000201000003040700000000000027
:1000C00000002E0311241FBECFEFD8E0DEBFCDBF4E
:1000D00011E0A0E0B1E0E0EDF6E002C005900D9285
:1000E000A832B107D9F721E0A8E2B1E001C01D9222
:1000F000AE3CB207E1F710E0C2E6D0E004C02197C1
:10010000FE010E945B03C136D107C9F70E94490274
:100110000C9466030C940000CF92DF92EF92FF9252
:100120000F931F93CF93DF936C017A018B01C0E093
:10013000D0E0CE15DF0589F0D8016D918D01D60193
:10014000ED91FC910190F081E02DC6010995892B7C
:1001500011F47E0102C02196ECCFC701DF91CF914F
:100160001F910F91FF90EF90DF90CF900895FC01C9
:10017000918D828D981761F0828DDF01A80FB11DDE
:100180005D968C91928D9F5F9F73928F90E0089502
:100190008FEF9FEF0895FC01918D828D981731F0BC
:1001A000828DE80FF11D858D90E008958FEF9FEF10
:1001B0000895FC01918D228D892F90E0805C9F4FE6
:1001C000821B91098F739927089581E391E00E9422
:1001D000D90021E0892B09F420E0822F0895FC0149
:1001E000848DDF01A80FB11DA35ABF4F2C91848DC0
:1001F00090E001968F739927848FA689B7892C93F5
:10020000A089B1898C9180648C93938D848D98138F
:1002100006C00288F389E02D80818F7D8083089558
:10022000EF92FF920F931F93CF93DF93EC0181E046
:10023000888F9B8D8C8D981305C0E889F989808102
:1002400085FD24C0F62E0B8D10E00F5F1F4F0F733E
:100250001127E02E8C8DE8120CC00FB607FCFACFE8
:10026000E889F989808185FFF5CFCE010E94EF00F2
:10027000F1CF8B8DFE01E80FF11DE35AFF4FF082A5
:100280000B8FEA89FB898081806207C0EE89FF8934
:100290006083E889F98980818064808381E090E0CF
:1002A000DF91CF911F910F91FF90EF900895CF9321
:1002B000DF93EC01888D8823C9F0EA89FB8980816E
:1002C00085FD05C0A889B9898C9186FD0FC00FB640
:1002D00007FCF5CF808185FFF2CFA889B9898C9181
:1002E00085FFEDCFCE010E94EF00E7CFDF91CF91E8
:1002F000089580E090E0892B29F00E94E5008111AB
:100300000C9400000895CF93DF93009779F0FC01DF
:1003100001900020E9F73197AF01481B590BBC0150
:1003200081E391E00E948C00EC0102C0C0E0D0E0CB
:1003300042E050E060E171E081E391E00E948C00D6
:100340008C0F9D1FDF91CF9108950E9461031F9232
:100350000F920FB60F9211242F933F938F939F9379
:10036000AF93BF9380912D0190912E01A0912F0109
:10037000B091300130912C0123E0230F2D3720F470
:100380000196A11DB11D05C026E8230F0296A11DEF
:10039000B11D20932C0180932D0190932E01A093E9
:1003A0002F01B09330018091280190912901A091F3
:1003B0002A01B0912B010196A11DB11D8093280146
:1003C00090932901A0932A01B0932B01BF91AF9183
:1003D0009F918F913F912F910F900FBE0F901F9083
:1003E00018951F920F920FB60F9211242F933F93DF
:1003F0004F935F936F937F938F939F93AF93BF932D
:10040000EF93FF9381E391E00E94EF00FF91EF9162
:10041000BF91AF919F918F917F916F915F914F911C
:100420003F912F910F900FBE0F901F9018951F9224
:100430000F920FB60F9211242F938F939F93EF93E8
:10044000FF93E0914101F09142018081E0914701E9
:10045000F091480182FD12C0908180914A018F5F26
:100460008F7320914B01821751F0E0914A01F0E027
:10047000EF5CFE4F958F80934A0101C08081FF9110
:10048000EF919F918F912F910F900FBE0F901F9022
:100490001895789484B5826084BD84B5816084BDEC
:1004A00085B5826085BD85B5816085BD80916E0012
:1004B000816080936E001092810080918100826043
:1004C0008093810080918100816080938100809180
:1004D00080008160809380008091B100846080936F
:1004E000B1008091B00081608093B00080917A006B
:1004F000846080937A0080917A00826080937A0091
:1005000080917A00816080937A0080917A0080687F
:1005100080937A001092C100E0914101F091420174
:1005200082E08083E0913D01F0913E011082E091F4
:100530003F01F09140018FEC808310924901E091DE
:100540004501F091460186E08083E0914301F091FE
:100550004401808180618083E0914301F0914401F6
:10056000808188608083E0914301F0914401808123
:1005700080688083E0914301F091440180818F7D08
:100580008083CFE9D0E0FE0124910BE810E0F80170
:1005900084918823C9F090E0880F991FFC01EE58E0
:1005A000FF4FA591B49188599F4FFC0145915491FB
:1005B0003FB7F8949C91822F809598239C93FA01E1
:1005C0009081892380833FBF43EBE42E40E0F42EEB
:1005D000F7019491FE012491F80184918823B9F1E7
:1005E000992339F1933091F038F49130A9F0923099
:1005F00001F594B59F7D12C0973091F09830A1F02D
:100600009430B9F4909180009F7D03C09091800058
:100610009F77909380000DC094B59F7794BD09C0DB
:100620009091B0009F7703C09091B0009F7D909310
:10063000B00090E0880F991F84589F4FFC01A5914E
:10064000B4918C91282319F083E191E002C083E2F8
:1006500091E00E9483010E947901BACFE1E3F1E0C9
:100660001382128288EE93E0A0E0B0E08483958349
:10067000A683B78384E091E09183808385EC90E04A
:100680009587848784EC90E09787868780EC90E05C
:10069000918B808B81EC90E0938B828B82EC90E04D
:1006A000958B848B86EC90E0978B868B118E128EC7
:1006B000138E148E0895EE0FFF1F0590F491E02D18
:1006C000099481E090E0F8940C946603F894FFCFCD
:1006D0000000000010018C00D900B700CB005701CA
:1006E0000D0A005349474E414C2049532048494781
:0806F0004821006C6F77000047
:107E0000112484B714BE81FFF0D085E080938100F7
:107E100082E08093C00088E18093C10086E0809377
:107E2000C20080E18093C4008EE0C9D0259A86E02C
:107E300020E33CEF91E0309385002093840096BBD3
:107E4000B09BFECF1D9AA8958150A9F7CC24DD24C4
:107E500088248394B5E0AB2EA1E19A2EF3E0BF2EE7
:107E6000A2D0813461F49FD0082FAFD0023811F036
:107E7000013811F484E001C083E08DD089C08234E0
:107E800011F484E103C0853419F485E0A6D080C0E4
:107E9000853579F488D0E82EFF2485D0082F10E0AE
:107EA000102F00270E291F29000F111F8ED06801E7
:107EB0006FC0863521F484E090D080E0DECF843638
:107EC00009F040C070D06FD0082F6DD080E0C81688
:107ED00080E7D80618F4F601B7BEE895C0E0D1E017
:107EE00062D089930C17E1F7F0E0CF16F0E7DF06D8
:107EF00018F0F601B7BEE89568D007B600FCFDCFD4
:107F0000A601A0E0B1E02C9130E011968C91119780
:107F100090E0982F8827822B932B1296FA010C0160
:107F200087BEE89511244E5F5F4FF1E0A038BF0790
:107F300051F7F601A7BEE89507B600FCFDCF97BE46
:107F4000E89526C08437B1F42ED02DD0F82E2BD052
:107F50003CD0F601EF2C8F010F5F1F4F84911BD097
:107F6000EA94F801C1F70894C11CD11CFA94CF0C13
:107F7000D11C0EC0853739F428D08EE10CD085E9AC
:107F80000AD08FE07ACF813511F488E018D01DD067
:107F900080E101D065CF982F8091C00085FFFCCF94
:107FA0009093C60008958091C00087FFFCCF809118
:107FB000C00084FD01C0A8958091C6000895E0E648
:107FC000F0E098E1908380830895EDDF803219F02E
:107FD00088E0F5DFFFCF84E1DECF1F93182FE3DFCA
:107FE0001150E9F7F2DF1F91089580E0E8DFEE27F6
:047FF000FF270994CA
:027FFE00040479
:0400000300007E007B
:00000001FF